:0D024400010900010C00C180C18101080307
:1001AE00D3EF9400EE940040147D707C00ED1D7032
:0D01BE00011CED4C70F7EF1F70E61E80E392
:0101CB002211
:09025200C292D293D296C2972207
:07000300D296C297C29422BD
:07027600C292D293C295224F
:09025B00D292C293C296D29722FE
:05027D00C295C29422AD
:09026400C292D293C296D29722F5
:09026D00D292C293D296C29722EC
:1001CC00300118E509D3950B5004D2948002C294E7
:0E01DC00E509C394204006E4F50922C29422EE
:1001EA00300018E50CD3950A5004D2958002C295C6
:0E01FA00E50CC394204006E4F50C22C29522C9
:03000B00020208E6
:10020800C0E0C0D0758CFC758A660509050C120122
:09021800CC1201EAD0D0D0E03292
:03002300020026B2
:0F002600C0E0C0F0C083C082C0D075D000C0075A
:10003500309872C298AF998F08EF24F8B408005031
:100045006490005475F003A4C58325F0C58373023D
:10005500006C02007402007C02008402008C020025
:100065009402009C0200A4750B01750A0180367587
:100075000B04750A04802E750B08750A0880267511
:100085000B0C750A0C801E750B10750A1080167501
:100095000B14750A14800E750B18750A18800675F1
:0500A5000B1C750A1C94
:0D00AA00D007D0D0D082D083D0F0D0E0328B
:10000E0020B7FD7F0A7E001201AE20B7F3C2A330E7
:04001E00B7FDD2A3B5
:0100220022BB
:10023400758901758CFC758A66D28CD2A9D2AF22DD
:10022100759850438920758DFD758BFDD28ED2AFA7
:03023100D2AC222A
:10014300E4F58012000E7FE87E031201AE12023442
:10015300120221E508D39407400312027DE5081437
:10016300B4070050EE90017675F003A4C58325F023
:10017300C5837302018B02019002019502019A0269
:10018300019F0201A40201A912025280C6120003B8
:1001930080C112027D80BC12027680B712025B809E
:0B01A300B212026480AD12026D80A851
:030000000200B744
:0C00B700787FE4F6D8FD7581200200FE81
:1000C300020143E493A3F8E493A34003F68001F20F
:1000D30008DFF48029E493A3F85407240CC8C3333E
:1000E300C4540F4420C8834004F456800146F6DF0D
:1000F300E4800B0102040810204080900244E47E57
:10010300019360BCA3FF543F30E509541FFEE49301
:10011300A360010ECF54C025E060A840B8E493A3C8
:10012300FAE493A3F8E493A3C8C582C8CAC583CAF3
:10013300F0A3C8C582C8CAC583CADFE9DEE780BEAB
:0102510000AC
:00000001FF
